{
  "_format": "hh-sol-artifact-1",
  "contractName": "WavePortal",
  "sourceName": "contracts/WavePortal.sol",
  "abi": [
    {
      "inputs": [],
      "stateMutability": "payable",
      "type": "constructor"
    },
    {
      "anonymous": false,
      "inputs": [
        {
          "indexed": true,
          "internalType": "address",
          "name": "from",
          "type": "address"
        },
        {
          "indexed": false,
          "internalType": "uint256",
          "name": "timestamp",
          "type": "uint256"
        },
        {
          "indexed": false,
          "internalType": "string",
          "name": "message",
          "type": "string"
        }
      ],
      "name": "NewWave",
      "type": "event"
    },
    {
      "inputs": [],
      "name": "getAllWaves",
      "outputs": [
        {
          "components": [
            {
              "internalType": "address",
              "name": "waver",
              "type": "address"
            },
            {
              "internalType": "string",
              "name": "message",
              "type": "string"
            },
            {
              "internalType": "uint256",
              "name": "timestamp",
              "type": "uint256"
            }
          ],
          "internalType": "struct WavePortal.Wave[]",
          "name": "",
          "type": "tuple[]"
        }
      ],
      "stateMutability": "view",
      "type": "function"
    },
    {
      "inputs": [],
      "name": "getTotalWaves",
      "outputs": [
        {
          "internalType": "uint256",
          "name": "",
          "type": "uint256"
        }
      ],
      "stateMutability": "view",
      "type": "function"
    },
    {
      "inputs": [
        {
          "internalType": "address",
          "name": "",
          "type": "address"
        }
      ],
      "name": "lastWavedAt",
      "outputs": [
        {
          "internalType": "uint256",
          "name": "",
          "type": "uint256"
        }
      ],
      "stateMutability": "view",
      "type": "function"
    },
    {
      "inputs": [
        {
          "internalType": "string",
          "name": "_message",
          "type": "string"
        }
      ],
      "name": "wave",
      "outputs": [],
      "stateMutability": "nonpayable",
      "type": "function"
    },
    {
      "inputs": [
        {
          "internalType": "address",
          "name": "",
          "type": "address"
        }
      ],
      "name": "waverStructures",
      "outputs": [
        {
          "internalType": "uint256",
          "name": "theIndex",
          "type": "uint256"
        }
      ],
      "stateMutability": "view",
      "type": "function"
    }
  ],
  "bytecode": "0x6080604052620000336040518060600160405280602581526020016200154d602591396200005b60201b620007431760201c565b60644442620000439190620001a8565b6200004f919062000245565b600381905550620002ec565b620000fb8160405160240162000072919062000168565b6040516020818303038152906040527f41304fac000000000000000000000000000000000000000000000000000000007bffffffffffffffffffffffffffffffffffffffffffffffffffffffff19166020820180517bffffffffffffffffffffffffffffffffffffffffffffffffffffffff8381831617835250505050620000fe60201b60201c565b50565b60008151905060006a636f6e736f6c652e6c6f679050602083016000808483855afa5050505050565b600062000134826200018c565b62000140818562000197565b9350620001528185602086016200020f565b6200015d81620002db565b840191505092915050565b6000602082019050818103600083015262000184818462000127565b905092915050565b600081519050919050565b600082825260208201905092915050565b6000620001b58262000205565b9150620001c28362000205565b9250827fffffffffffffffffffffffffffffffffffffffffffffffffffffffffffffffff03821115620001fa57620001f96200027d565b5b828201905092915050565b6000819050919050565b60005b838110156200022f57808201518184015260208101905062000212565b838111156200023f576000848401525b50505050565b6000620002528262000205565b91506200025f8362000205565b925082620002725762000271620002ac565b5b828206905092915050565b7f4e487b7100000000000000000000000000000000000000000000000000000000600052601160045260246000fd5b7f4e487b7100000000000000000000000000000000000000000000000000000000600052601260045260246000fd5b6000601f19601f8301169050919050565b61125180620002fc6000396000f3fe608060405234801561001057600080fd5b50600436106100575760003560e01c8063449d46c01461005c5780639a2cdc0814610078578063a42a466314610096578063bd43a908146100c6578063ef943cbc146100e4575b600080fd5b61007660048036038101906100719190610a86565b610114565b005b610080610571565b60405161008d9190610df3565b60405180910390f35b6100b060048036038101906100ab9190610a5d565b6105bc565b6040516100bd9190610df3565b60405180910390f35b6100ce6105d4565b6040516100db9190610cef565b60405180910390f35b6100fe60048036038101906100f99190610a5d565b610725565b60405161010b9190610df3565b60405180910390f35b42600a600560003373ffffffffffffffffffffffffffffffffffffffff1673ffffffffffffffffffffffffffffffffffffffff168152602001908152602001600020546101619190610f05565b106101a1576040517f08c379a000000000000000000000000000000000000000000000000000000000815260040161019890610d93565b60405180910390fd5b42600560003373ffffffffffffffffffffffffffffffffffffffff1673ffffffffffffffffffffffffffffffffffffffff1681526020019081526020016000208190555060018060008282546101f79190610f05565b925050819055506002339080600181540180825580915050600190039060005260206000200160009091909190916101000a81548173ffffffffffffffffffffffffffffffffffffffff021916908373ffffffffffffffffffffffffffffffffffffffff1602179055506102a06040518060400160405280600d81526020017f2573206861732077617665642100000000000000000000000000000000000000815250336107dc565b600460405180606001604052803373ffffffffffffffffffffffffffffffffffffffff16815260200183815260200142815250908060018154018082558091505060019003906000526020600020906003020160009091909190915060008201518160000160006101000a81548173ffffffffffffffffffffffffffffffffffffffff021916908373ffffffffffffffffffffffffffffffffffffffff160217905550602082015181600101908051906020019061035f92919061093d565b506040820151816002015550506064600354424461037d9190610f05565b6103879190610f05565b610391919061103c565b6003819055506103d86040518060400160405280601781526020017f52616e646f6d20232067656e657265617465643a202564000000000000000000815250600354610878565b60326003541161051e576104216040518060400160405280600781526020017f257320776f6e2100000000000000000000000000000000000000000000000000815250336107dc565b6000655af3107a400090504781111561046f576040517f08c379a000000000000000000000000000000000000000000000000000000000815260040161046690610dd3565b60405180910390fd5b60003373ffffffffffffffffffffffffffffffffffffffff168260405161049590610cda565b60006040518083038185875af1925050503d80600081146104d2576040519150601f19603f3d011682016040523d82523d6000602084013e6104d7565b606091505b505090508061051b576040517f08c379a000000000000000000000000000000000000000000000000000000000815260040161051290610db3565b60405180910390fd5b50505b3373ffffffffffffffffffffffffffffffffffffffff167f5f7e16dc676677766a70e9c5628aa6c54ddb8b6e5188e2ae1e1f17f1ffbea7164283604051610566929190610e0e565b60405180910390a250565b60006105b46040518060400160405280601781526020017f5765206861766520256420746f74616c20776176657321000000000000000000815250600154610878565b600154905090565b60056020528060005260406000206000915090505481565b60606004805480602002602001604051908101604052809291908181526020016000905b8282101561071c57838290600052602060002090600302016040518060600160405290816000820160009054906101000a900473ffffffffffffffffffffffffffffffffffffffff1673ffffffffffffffffffffffffffffffffffffffff1673ffffffffffffffffffffffffffffffffffffffff16815260200160018201805461068190610fd9565b80601f01602080910402602001604051908101604052809291908181526020018280546106ad90610fd9565b80156106fa5780601f106106cf576101008083540402835291602001916106fa565b820191906000526020600020905b8154815290600101906020018083116106dd57829003601f168201915b50505050508152602001600282015481525050815260200190600101906105f8565b50505050905090565b60006020528060005260406000206000915090508060000154905081565b6107d9816040516024016107579190610d11565b6040516020818303038152906040527f41304fac000000000000000000000000000000000000000000000000000000007bffffffffffffffffffffffffffffffffffffffffffffffffffffffff19166020820180517bffffffffffffffffffffffffffffffffffffffffffffffffffffffff8381831617835250505050610914565b50565b61087482826040516024016107f2929190610d33565b6040516020818303038152906040527f319af333000000000000000000000000000000000000000000000000000000007bffffffffffffffffffffffffffffffffffffffffffffffffffffffff19166020820180517bffffffffffffffffffffffffffffffffffffffffffffffffffffffff8381831617835250505050610914565b5050565b610910828260405160240161088e929190610d63565b6040516020818303038152906040527f9710a9d0000000000000000000000000000000000000000000000000000000007bffffffffffffffffffffffffffffffffffffffffffffffffffffffff19166020820180517bffffffffffffffffffffffffffffffffffffffffffffffffffffffff8381831617835250505050610914565b5050565b60008151905060006a636f6e736f6c652e6c6f679050602083016000808483855afa5050505050565b82805461094990610fd9565b90600052602060002090601f01602090048101928261096b57600085556109b2565b82601f1061098457805160ff19168380011785556109b2565b828001600101855582156109b2579182015b828111156109b1578251825591602001919060010190610996565b5b5090506109bf91906109c3565b5090565b5b808211156109dc5760008160009055506001016109c4565b5090565b60006109f36109ee84610e63565b610e3e565b905082815260208101848484011115610a0b57600080fd5b610a16848285610f97565b509392505050565b600081359050610a2d81611204565b92915050565b600082601f830112610a4457600080fd5b8135610a548482602086016109e0565b91505092915050565b600060208284031215610a6f57600080fd5b6000610a7d84828501610a1e565b91505092915050565b600060208284031215610a9857600080fd5b600082013567ffffffffffffffff811115610ab257600080fd5b610abe84828501610a33565b91505092915050565b6000610ad38383610c6c565b905092915050565b610ae481610f5b565b82525050565b610af381610f5b565b82525050565b6000610b0482610ea4565b610b0e8185610ec7565b935083602082028501610b2085610e94565b8060005b85811015610b5c5784840389528151610b3d8582610ac7565b9450610b4883610eba565b925060208a01995050600181019050610b24565b50829750879550505050505092915050565b6000610b7982610eaf565b610b838185610ee3565b9350610b93818560208601610fa6565b610b9c81611129565b840191505092915050565b6000610bb282610eaf565b610bbc8185610ef4565b9350610bcc818560208601610fa6565b610bd581611129565b840191505092915050565b6000610bed600f83610ef4565b9150610bf88261113a565b602082019050919050565b6000610c10602783610ef4565b9150610c1b82611163565b604082019050919050565b6000610c33600083610ed8565b9150610c3e826111b2565b600082019050919050565b6000610c56603083610ef4565b9150610c61826111b5565b604082019050919050565b6000606083016000830151610c846000860182610adb565b5060208301518482036020860152610c9c8282610b6e565b9150506040830151610cb16040860182610cbc565b508091505092915050565b610cc581610f8d565b82525050565b610cd481610f8d565b82525050565b6000610ce582610c26565b9150819050919050565b60006020820190508181036000830152610d098184610af9565b905092915050565b60006020820190508181036000830152610d2b8184610ba7565b905092915050565b60006040820190508181036000830152610d4d8185610ba7565b9050610d5c6020830184610aea565b9392505050565b60006040820190508181036000830152610d7d8185610ba7565b9050610d8c6020830184610ccb565b9392505050565b60006020820190508181036000830152610dac81610be0565b9050919050565b60006020820190508181036000830152610dcc81610c03565b9050919050565b60006020820190508181036000830152610dec81610c49565b9050919050565b6000602082019050610e086000830184610ccb565b92915050565b6000604082019050610e236000830185610ccb565b8181036020830152610e358184610ba7565b90509392505050565b6000610e48610e59565b9050610e54828261100b565b919050565b6000604051905090565b600067ffffffffffffffff821115610e7e57610e7d6110fa565b5b610e8782611129565b9050602081019050919050565b6000819050602082019050919050565b600081519050919050565b600081519050919050565b6000602082019050919050565b600082825260208201905092915050565b600081905092915050565b600082825260208201905092915050565b600082825260208201905092915050565b6000610f1082610f8d565b9150610f1b83610f8d565b9250827fffffffffffffffffffffffffffffffffffffffffffffffffffffffffffffffff03821115610f5057610f4f61106d565b5b828201905092915050565b6000610f6682610f6d565b9050919050565b600073ffffffffffffffffffffffffffffffffffffffff82169050919050565b6000819050919050565b82818337600083830152505050565b60005b83811015610fc4578082015181840152602081019050610fa9565b83811115610fd3576000848401525b50505050565b60006002820490506001821680610ff157607f821691505b60208210811415611005576110046110cb565b5b50919050565b61101482611129565b810181811067ffffffffffffffff82111715611033576110326110fa565b5b80604052505050565b600061104782610f8d565b915061105283610f8d565b9250826110625761106161109c565b5b828206905092915050565b7f4e487b7100000000000000000000000000000000000000000000000000000000600052601160045260246000fd5b7f4e487b7100000000000000000000000000000000000000000000000000000000600052601260045260246000fd5b7f4e487b7100000000000000000000000000000000000000000000000000000000600052602260045260246000fd5b7f4e487b7100000000000000000000000000000000000000000000000000000000600052604160045260246000fd5b6000601f19601f8301169050919050565b7f57616974203130207365636f6e64730000000000000000000000000000000000600082015250565b7f4661696c656420746f207769746864726177206d6f6e65792066726f6d20636f60008201527f6e74726163742e00000000000000000000000000000000000000000000000000602082015250565b50565b7f547279696e6720746f207769746864726177206d6f7265206d6f6e657920667260008201527f6f6d20636f6e7472616374206861732e00000000000000000000000000000000602082015250565b61120d81610f5b565b811461121857600080fd5b5056fea264697066735822122019038525eeebff686021fe2f60676c2fa8ce82846dfd1ab5dfb322f9043ff87a64736f6c63430008040033596f20796f2c204920616d206120636f6e747261637420616e64204920616d20736d617274",
  "linkReferences": {},
  "deployedLinkReferences": {}
}